:100000000C9463000C948B000C948B000C948B006C
:100010000C948B000C948B000C948B000C948B0034
:100020000C948B000C948B000C948B000C948B0024
:100030000C948B000C948B000C948B000C948B0014
:100040000C9401070C948B000C94CF060C94A90619
:100050000C948B000C948B000C948B000C948B00F4
:100060000C948B000C948B000000000023002600F1
:10007000290000000000240027002A0000000000E2
:10008000250028002B0004040404040404040202D4
:100090000202020203030303030301020408102007
:1000A0004080010204081020010204081020000012
:1000B0000008000201000003040700000000000027
:1000C00000004B07740911241FBECFEFD8E0DEBF3C
:1000D000CDBF21E0A8E3B1E001C01D92A83FB20767
:1000E000E1F711E0A0E0B1E0EEEFF8E102C0059029
:1000F0000D92A833B107D9F710E0C2E6D0E004C0F2
:100100002197FE010E94750AC136D107C9F70E94E6
:100110009B070C94720C0C9400000895AF92BF9250
:10012000CF92DF92EF92FF920F931F93CF93DF93C3
:100130006C017B018B01040F151FEB015E01AE18F2
:10014000BF08C017D10759F06991D601ED91FC9114
:100150000190F081E02DC6010995892B79F7C50141
:10016000DF91CF911F910F91FF90EF90DF90CF9093
:10017000BF90AF900895FC01538D448D252F30E042
:10018000842F90E0821B930B541710F0CF960895A4
:1001900001970895FC01918D828D981761F0A28DD1
:1001A000AE0FBF2FB11D5D968C91928D9F5F9F7397
:1001B000928F90E008958FEF9FEF08952FB7F894F6
:1001C0008091420190914301A0914401B091450179
:1001D0002FBF80934E0190934F01A0935001B09395
:1001E000510186E491E00E94CA0097FF26C02FB714
:1001F000F8948091420190914301A0914401B09103
:1002000045012FBF40914E0150914F016091500127
:1002100070915101841B950BA60BB70B40914A01BD
:1002200050914B0160914C0170914D0184179507DD
:10023000A607B707B0F28FEF9FEF0895FC01918DED
:10024000828D981731F0828DE80FF11D858D90E039
:1002500008958FEF9FEF0895FC01918D228D892FD6
:1002600090E0805C9F4F821B91098F7399270895BE
:1002700086E491E00E942C0121E0892B09F420E022
:10028000822F089580E090E0892B29F00E943801A8
:1002900081110C9400000895FC01A48DA80FB92FC2
:1002A000B11DA35ABF4F2C91848D90E001968F739E
:1002B0009927848FA689B7892C93A089B1898C91BD
:1002C000837080648C93938D848D981306C002880C
:1002D000F389E02D80818F7D80830895EF92FF92D6
:1002E0000F931F93CF93DF93EC0181E0888F9B8D59
:1002F0008C8D98131AC0E889F989808185FF15C013
:100300009FB7F894EE89FF896083E889F989808135
:100310008370806480839FBF81E090E0DF91CF9104
:100320001F910F91FF90EF900895F62E0B8D10E026
:100330000F5F1F4F0F731127E02E8C8D8E110CC095
:100340000FB607FCFACFE889F989808185FFF5CFE0
:10035000CE010E944C01F1CFEB8DEC0FFD2FF11D72
:10036000E35AFF4FF0829FB7F8940B8FEA89FB891D
:1003700080818062CFCFCF93DF93EC01888D88237B
:10038000B9F0AA89BB89E889F9898C9185FD03C0F8
:10039000808186FD0DC00FB607FCF7CF8C9185FFDD
:1003A000F2CF808185FFEDCFCE010E944C01E9CFD5
:1003B000DF91CF91089590E0FC01E255FF4F249129
:1003C000FC01E656FF4F3491FC01EA57FF4FE491E0
:1003D000EE23C9F0222339F0233001F1A8F42130B3
:1003E00019F1223029F1F0E0EE0FFF1FE458FF4F22
:1003F000A591B4918FB7F894EC91611126C0309516
:100400003E233C938FBF08952730A9F02830C9F0D0
:10041000243049F7809180008F7D03C08091800057
:100420008F7780938000DFCF84B58F7784BDDBCF5B
:1004300084B58F7DFBCF8091B0008F778093B00023
:10044000D2CF8091B0008F7DF9CF3E2BDACFCF9302
:10045000DF9390E0FC01E656FF4F24918A579F4FAF
:10046000FC0184918823C9F090E0880F991FFC015A
:10047000EE58FF4FA591B491FC01E458FF4FC59190
:10048000D49161110DC09FB7F8948C91209582236F
:100490008C938881282328839FBFDF91CF91089573
:1004A000623051F49FB7F8943C91822F809583235A
:1004B0008C93E8812E2BEFCF8FB7F894EC912E2BF5
:1004C0002C938FBFEACF3FB7F89480913901909178
:1004D0003A01A0913B01B0913C0126B5A89B05C013
:1004E0002F3F19F00196A11DB11D3FBFBA2FA92FB3
:1004F000982F8827BC01CD01620F711D811D911DB0
:1005000042E0660F771F881F991F4A95D1F708951B
:100510008F929F92AF92BF92CF92DF92EF92FF9213
:100520004B015C010E9463026B017C010E9463022B
:100530006C197D098E099F09683E734081059105FC
:10054000A8F321E0821A9108A108B10888EEC80E2C
:1005500083E0D81EE11CF11C81149104A104B104B4
:1005600029F7FF90EF90DF90CF90BF90AF909F90D2
:100570008F900895CF92DF92EF92FF920F931F9387
:10058000CF93DF93EC017A016901E881F981019051
:10059000F081E02D0995E881F9810084F185E02D55
:1005A0009801A601B701CE01DF91CF911F910F9164
:1005B000FF90EF90DF90CF9009946F927F928F928F
:1005C0009F92AF92BF92CF92DF92EF92FF920F93E2
:1005D0001F93CF93DF93CDB7DEB7AC970FB6F894E8
:1005E000DEBF0FBECDBFDC011696ED91FC913196BA
:1005F00009F480C059013A016B018C01FE0131966A
:100600004F0188E2DF011D928A95E9F7D801ED914B
:10061000FC910488F589E02DB401C80109957C019D
:10062000892B09F051C01AA619A61CA61BA6D80131
:10063000ED91FC910688F789E02D9E01255D3F4FE5
:10064000AE01475D5F4FB401C80109957C01892B5C
:10065000D9F5A114B10439F088E2F401D501019073
:100660000D928A95E1F709A51AA5C114D10479F074
:10067000612F772767FD7A95072E000C880B990B61
:100680000E94A409F60160837183828393836114BD
:10069000710489F08CA5682F782F770F770B072EC0
:1006A000000C880B990B0E94A409D3016D937D93D4
:1006B0008D939C931397012B39F48BA59CA5892BC3
:1006C00019F496E1E92EF12CC701AC960FB6F89417
:1006D000DEBF0FBECDBFDF91CF911F910F91FF9075
:1006E000EF90DF90CF90BF90AF909F908F907F90D2
:1006F0006F90089587E1E82EF12CE6CF8F929F92BC
:10070000AF92BF92CF92DF92EF92FF920F931F931F
:10071000CF93DF93EC018B016A017901E881F981C4
:100720000288F389E02D0995B82EB801685F7F4FE4
:10073000E881F9810288F389E02DCE010995982E90
:10074000B801605F7F4FE881F9810288F389E02D6D
:10075000CE010995A82EB801685E7F4FE881F98126
:100760000288F389E02DCE010995882EB801605EDC
:100770007F4FE881F9810288F389E02DCE01099548
:100780009B2D990D9A0D980D891319C09A2D882DBE
:10079000F601918380839B2D892DF70191838083BE
:1007A00090E080E0DF91CF911F910F91FF90EF904B
:1007B000DF90CF90BF90AF909F908F90089585E18C
:1007C00090E0F0CF47E050E080E0FB012191BF01D5
:1007D000042E01C0220F0A94EAF7820F41505109FA
:1007E000A0F708953F924F925F926F927F928F92FF
:1007F0009F92AF92BF92CF92DF92EF92FF920F93B0
:100800001F93CF93DF93EC01162F7A0169010E94A9
:1008100063024B015C01312C111139843601660CE5
:10082000771C660C771C85E0681A71082701440C58
:10083000551C440C551C85E0481A510810E000E096
:1008400060E070E0CB012A813B814C815D812617FD
:100850003707480759070CF10115110599F582E092
:10086000E816F1041CF0C2010197F1F70E9463023F
:10087000681979098A099B09EA85F0E0EE0FFF1FE4
:10088000E859FF4FA591B4912C910F5F1F4F398507
:100890002323231105C097FFD6CF6FEF7FEFCB0146
:1008A000DF91CF911F910F91FF90EF90DF90CF904C
:1008B000BF90AF909F908F907F906F905F904F9080
:1008C0003F90089582E0C816D10484F2C301CCCFD2
:1008D000FC01828590E00895FC01818590E00895F7
:1008E000CF92DF92EF92FF920F931F93CF93DF93FC
:1008F000EC017A016901E881F9810190F081E02D34
:100900000995E881F9810480F581E02D9801A6011F
:10091000B701CE01DF91CF911F910F91FF90EF9022
:10092000DF90CF900994CF92DF92EF92FF920F93D6
:100930001F93CF93DF93CDB7DEB728970FB6F89408
:10094000DEBF0FBECDBFDC011696ED91FC91319656
:1009500009F440C08A017B0119821A821B821C8221
:100960001D821E821F821886DC01ED91FC9100849D
:10097000F185E02DAE014B5F5F4FBE016F5F7F4F92
:1009800009956C01892BB1F4E114F10441F06981FE
:100990007A818B819C810E943F0AF7016083011557
:1009A000110541F06D817E818F8198850E943F0AFB
:1009B000D8016C93C60128960FB6F894DEBF0FBE1F
:1009C000CDBFDF91CF911F910F91FF90EF90DF90FE
:1009D000CF90089587E1C82ED12CECCF262F2D7F04
:1009E00029F4FC01608790E080E0089588E190E0C0
:1009F0000895DC0117967C936E931697FB01E656DB
:100A0000FF4FE4911996EC9319976A577F4FFB01BA
:100A100064911A966C930895CF93DF93EC018881CB
:100A20009981009711F00E94170B198218821D827C
:100A30001C821B821A82DF91CF910895FC01808174
:100A40009181009711F00C94170B08950E945D0C92
:100A50000F931F93CF93DF93EC01888199810097C7
:100A600059F02A813B812617370730F081E0DF916A
:100A7000CF911F910F9108958B016F5F7F4F0E945F
:100A8000A00B009759F0998388831B830A832C81DC
:100A90003D81232B59F7FC011082E8CF80E0E7CF9E
:100AA000EF92FF920F931F93CF93DF936115710520
:100AB00041F480E0DF91CF911F910F91FF90EF9073
:100AC000089541155105B1F07B01EC010C811D81A8
:100AD000040F151FB8010E942805882351F32881AF
:100AE00039818C819D81B701820F931F0E946B0C0D
:100AF0001D830C8381E0DECF0F931F93CF93DF9391
:100B000000D0CDB7DEB78C0169831A8241E050E096
:100B1000BE016F5F7F4F0E945005811103C0C80165
:100B20000E940C05C8010F900F90DF91CF911F918B
:100B30000F910895EF92FF920F931F93CF93DF933E
:100B4000EC017B018A01BA010E94280581110BC0CA
:100B5000CE010E940C05CE01DF91CF911F910F9124
:100B6000FF90EF9008951D830C83B70188819981D0
:100B70000E946B0CF0CFEF92FF920F931F93CF93D5
:100B8000DF93CDB7DEB729970FB6F894DEBF0FBE5F
:100B9000CDBF8C01862FF801118210821382128240
:100BA000158214824AE09E012F5F3F4F7901B901FF
:100BB00090E00E947809F70101900020E9F7319751
:100BC000AF014E195F09B701C8010E949A05299625
:100BD0000FB6F894DEBF0FBECDBFDF91CF911F914E
:100BE0000F91FF90EF900895EF92FF920F931F9354
:100BF000CF93DF93EC018B0188E2FB0111928A9580
:100C0000E9F761E08E810E94270260E08E810E94F8
:100C1000DB0164E170E080E090E00E94880261E026
:100C20008E810E94DB0168858E810E9427028FE5FC
:100C300090E00197F1F7E881F9810088F189E02DD2
:100C400026E030E04AE050E060E0CE0109956E31E8
:100C50007105810591056CF4982F872F762F6627F3
:100C60006061CB01DF91CF911F910F91FF90EF90C9
:100C70000895E881F9810088F189E02D26E030E0CF
:100C80004AE050E061E0CE0109957801F8E2EF0E0C
:100C9000F11C623371058105910534F4982F872F7B
:100CA000762F66276161DDCFE881F9810088F189BF
:100CB000E02D26E030E04AE050E060E0CE0109950A
:100CC000683171058105910534F4982F872F762FAF
:100CD00066276261C6CFE881F9810088F189E02D3D
:100CE00026E030E04AE050E061E0CE0109956B304B
:100CF00071058105910534F4982F872F762F66278B
:100D00006361AFCF21E069327105810591050CF473
:100D100020E0F80121938F01EE16FF0629F6E88105
:100D2000F9810088F189E02D26E030E04AE050E0CA
:100D300060E0CE010995683171058105910534F4B3
:100D4000982F872F762F662764618BCF70E060E045
:100D500088CF1F920F920FB60F9211242F933F93BB
:100D60004F935F936F937F938F939F93AF93BF93B3
:100D7000EF93FF9386E491E00E944C01FF91EF9185
:100D8000BF91AF919F918F917F916F915F914F91A3
:100D90003F912F910F900FBE0F901F9018951F92AB
:100DA0000F920FB60F9211242F938F939F93EF936F
:100DB000FF93E0915601F09157018081E0915C0131
:100DC000F0915D0182FD1BC0908180915F018F5F7A
:100DD0008F7320916001821741F0E0915F01F0E094
:100DE000EA5BFE4F958F80935F01FF91EF919F919A
:100DF0008F912F910F900FBE0F901F9018958081AB
:100E0000F4CF1F920F920FB60F9211242F933F939E
:100E10008F939F93AF93BF93809142019091430131
:100E2000A0914401B09145013091380123E0230F96
:100E30002D3758F50196A11DB11D209338018093DF
:100E4000420190934301A0934401B09345018091E6
:100E5000390190913A01A0913B01B0913C0101967A
:100E6000A11DB11D8093390190933A01A0933B01DC
:100E7000B0933C01BF91AF919F918F913F912F9182
:100E80000F900FBE0F901F90189526E8230F029623
:100E9000A11DB11DD2CFE6E4F1E01382128288EEEB
:100EA00093E0A0E0B0E084839583A683B7838AE0D3
:100EB00091E09183808385EC90E09587848784EC32
:100EC00090E09787868780EC90E0918B808B81EC17
:100ED00090E0938B828B82EC90E0958B848B86ECF8
:100EE00090E0978B868B118E128E138E148EE9EE06
:100EF000F1E080E291EAA7E0B0E082839383A483EB
:100F0000B5838FEF9FEF97838683108681878287D3
:100F10008CE191E091838083E3EEF1E01182108215
:100F2000138212821582148250E040E066E371E081
:100F3000CF010C949A05CF93DF93CDB7DEB76297BC
:100F40000FB6F894DEBF0FBECDBF789484B5826033
:100F500084BD84B5816084BD85B5826085BD85B55D
:100F6000816085BD80916E00816080936E001092DB
:100F70008100809181008260809381008091810056
:100F800081608093810080918000816080938000E7
:100F90008091B10084608093B1008091B000816045
:100FA0008093B00080917A00846080937A00809171
:100FB0007A00826080937A0080917A0081608093C9
:100FC0007A0080917A00806880937A001092C10044
:100FD000E0915601F091570182E08083E091520147
:100FE000F09153011082E0915401F09155018FEC82
:100FF000808310925E01E0915A01F0915B0186E0DE
:101000008083E0915801F091590180818061808353
:10101000E0915801F0915901808188608083E091CE
:101020005801F0915901808180688083E0915801D6
:10103000F091590180818F7D808361E087E00E947B
:10104000270261E086E00E94270261E085E00E94BD
:10105000270260E087E00E94DB0160E086E00E94FA
:10106000DB0160E085E00E94DB0180E0E82E80E0AB
:10107000F82E80914001909141010A9709F065C0D6
:1010800010E000E02EE331E04FE351E06CE070E06F
:1010900089EE91E00E94700460913E01CE010196BC
:1010A0000E94BB0560913F01CE0107960E94BB05DF
:1010B0001E861D86188A1F861A8A198A42E050E009
:1010C00064E371E0CE010D960E949A054B855C8524
:1010D0006F817885CE010D960E945005811104C064
:1010E000CE010D960E940C056AE2CE010D960E947B
:1010F0007C058C014D815E8169817A810E94500559
:10110000811103C0C8010E940C056AE2C8010E9457
:101110007C056AE00E947C05FC0144815581608168
:10112000718186E491E00E948E00CE010D960E94AE
:101130001E05CE0107960E941E05CE0101960E9453
:101140001E05109241011092400180914001909142
:1011500041010196909341018093400186E491E022
:101160000E942C01181619060CF08FC01A821982E1
:101170001C821B821E821D8250E040E066E371E00B
:10118000CE0101960E949A050E94DE0097FD0FC0D5
:101190008A30910561F08F83188641E050E0BE01EE
:1011A000695F7F4FCE0101960E945005EDCF80917F
:1011B000E3019091E401009709F47BC069817A8191
:1011C0006115710509F473C04091E5015091E60184
:1011D0002D813E814217530708F469C00E946B0CB1
:1011E0008D819E819093E8018093E7011E821D828C
:1011F000CE0101960E941E058091E7019091E801C1
:10120000892B31F0E091E301F091E401309721F472
:1012100010923D01EDE3F1E0808160E0803309F060
:1012200061E087E00E94DB018091E7019091E80195
:10123000029738F0E091E301F091E401309709F072
:101240004FC010923D01EDE3F1E0808160E080331A
:1012500009F061E086E00E94DB018091E701909156
:10126000E801039730F0E091E301F091E401309759
:10127000C9F510923D01EDE3F1E0808160E080333B
:1012800009F061E085E00E94DB0164EF71E080E03D
:1012900090E00E948802E114F10409F4EACE0E9471
:1012A0003801882309F4E5CE0E940000E2CE0E94B6
:1012B000170B89819A819093E4018093E3018B81DC
:1012C0009C819093E6018093E5018D819E819093AE
:1012D000E8018093E7011A8219821C821B8286CF63
:1012E0003196B3CF3296C9CF83EE91E00C941E05B0
:1012F000BB27FB015527AA27880F991FAA1FA417F0
:1013000010F0A41B83955051B9F7A05DAA3308F0E3
:10131000A95DA193009779F7B111B1931192CB0117
:101320000C949209DC01FC01672F71917723E1F79E
:10133000329704C07C916D9370836291AE17BF07A2
:10134000C8F30895E89409C097FB3EF49095809502
:10135000709561957F4F8F4F9F4F9923A9F0F92F7B
:1013600096E9BB279395F695879577956795B795F9
:10137000F111F8CFFAF4BB0F11F460FF1BC06F5FDF
:101380007F4F8F4F9F4F16C0882311F096E911C0F1
:10139000772321F09EE8872F762F05C0662371F012
:1013A00096E8862F70E060E02AF09A95660F771F26
:1013B000881FDAF7880F9695879597F9089557FD56
:1013C0009058440F551F59F05F3F71F04795880FB3
:1013D00097FB991F61F09F3F79F08795089512164A
:1013E00013061406551FF2CF4695F1DF08C01616F6
:1013F00017061806991FF1CF8695710561050894A7
:101400000895E894BB2766277727CB0197F90895BD
:101410002F923F924F925F926F927F928F929F9204
:10142000AF92BF92CF92DF92EF92FF920F931F93F2
:10143000CF93DF93CDB7DEB7CA1BDB0B0FB6F894A3
:10144000DEBF0FBECDBF09942A88398848885F84E3
:101450006E847D848C849B84AA84B984C884DF8054
:10146000EE80FD800C811B81AA81B981CE0FD11D38
:101470000FB6F894DEBF0FBECDBFED0108950E94F8
:10148000460A6894B1110C94020A08950E94E70973
:1014900088F09F5798F0B92F9927B751B0F0E1F035
:1014A000660F771F881F991F1AF0BA95C9F714C0E5
:1014B000B13091F00E94010AB1E008950C94010A44
:1014C000672F782F8827B85F39F0B93FCCF386951E
:1014D00077956795B395D9F73EF49095809570957B
:1014E00061957F4F8F4F9F4F0895EE0FFF1F05901F
:1014F000F491E02D09940F931F93CF93DF938230E3
:10150000910510F482E090E0E091F601F091F7018E
:1015100030E020E0B0E0A0E0309799F421153105EB
:1015200009F44AC0281B390B24303105D8F58A81CB
:101530009B816115710589F1FB0193838283FE0113
:1015400011C0408151810281138148175907E0F091
:101550004817590799F4109761F012960C93129757
:1015600013961C933296CF01DF91CF911F910F916B
:1015700008950093F6011093F701F4CF211531057A
:1015800051F04217530738F0A901DB019A01BD0160
:10159000DF01F801C1CFEF01F9CF9093F7018093FC
:1015A000F601CDCFFE01E20FF31F819391932250FC
:1015B000310939832883D7CF2091F4013091F50187
:1015C000232B41F420910201309103013093F50166
:1015D0002093F40120910001309101012115310582
:1015E00041F42DB73EB74091040150910501241BF1
:1015F000350BE091F401F091F501E217F307A0F447
:101600002E1B3F0B2817390778F0AC014E5F5F4F58
:101610002417350748F04E0F5F1F5093F501409394
:10162000F401819391939FCFF0E0E0E09CCFCF93C2
:10163000DF930097E9F0FC01329713821282A091A8
:10164000F601B091F701ED0130E020E01097A1F430
:1016500020813181820F931F2091F4013091F50197
:101660002817390709F061C0F093F501E093F40100
:10167000DF91CF910895EA01CE17DF07E8F54A819F
:101680005B819E0141155105B1F7E901FB83EA83B6
:1016900049915991C40FD51FEC17FD0761F4808162
:1016A00091810296840F951FE90199838883828135
:1016B00093819B838A83F0E0E0E012968D919C9168
:1016C00013970097B9F52D913C911197CD01029692
:1016D000820F931F2091F4013091F50128173907EB
:1016E00039F6309751F51092F7011092F601B09348
:1016F000F501A093F401BCCFD383C2834081518113
:10170000840F951FC817D90761F44E5F5F4F88811A
:101710009981480F591F518340838A819B8193830C
:1017200082832115310509F0B0CFF093F701E093E2
:10173000F6019ECFFD01DC01C0CF13821282D7CF0C
:10174000B0E0A0E0E6EAFBE00C940A0A8C01009706
:1017500051F4CB010E947B0A8C01C801CDB7DEB7E2
:10176000E0E10C94260AFC01E60FF71F9C012250D1
:101770003109E217F30708F49DC0D901CD91DC913E
:101780001197C617D70798F0C530D10530F3CE01B1
:1017900004978617970708F3C61BD70B2297C193A8
:1017A000D1936D937C93CF010E94170BD6CF5B0131
:1017B000AC1ABD0A4C018C0E9D1EA091F601B09191
:1017C000F701512C412CF12CE12C109731F580912F
:1017D000F4019091F5018815990509F05CC0461651
:1017E000570608F058C080910001909101010097C0
:1017F00041F48DB79EB74091040150910501841BBF
:10180000950BE817F90708F055C0F093F501E09340
:10181000F401F90171836083A0CF8D919C911197A0
:1018200012966C90129713967C901397A815B90591
:1018300059F56C0142E0C40ED11CCA14DB0420F13E
:10184000AC014A195B09DA011296159780F06282A1
:10185000738251834083D9016D937C93E114F10429
:1018600071F0D7011396FC93EE93129776CF2296E0
:101870008C0F9D1FF90191838083F301EFCFF093CB
:10188000F701E093F60169CF4816590608F42C01D8
:101890007D01D3019ACFCB010E947B0A7C01009786
:1018A00049F0AE01B8010E94620CC8010E94170BFA
:1018B000870153CF10E000E050CF81E090E0F89432
:1018C0000C94720CFB01DC0102C001900D9241509E
:1018D0005040D8F70895FB01DC0101900D920020E3
:1018E000E1F7089510E0C2E6D0E004C0FE010E94D6
:0E18F000750A2196C336D107C9F7F894FFCFC9
:1018FE000000F8018000000000006E018E00BB00A9
:10190E00BB012C01CA001E0100000000F904EE0408
:10191E0093047004DD02BA026C046804F203E2035D
:08192E00F4057E03442A0000C9
:00000001FF
